{
  "_format": "hh-sol-artifact-1",
  "contractName": "Voting",
  "sourceName": "contracts/Voting.sol",
  "abi": [
    {
      "inputs": [],
      "stateMutability": "nonpayable",
      "type": "constructor"
    },
    {
      "anonymous": false,
      "inputs": [
        {
          "indexed": true,
          "internalType": "uint256",
          "name": "candidateId",
          "type": "uint256"
        },
        {
          "indexed": false,
          "internalType": "string",
          "name": "name",
          "type": "string"
        }
      ],
      "name": "CandidateAdded",
      "type": "event"
    },
    {
      "anonymous": false,
      "inputs": [
        {
          "indexed": true,
          "internalType": "address",
          "name": "voter",
          "type": "address"
        },
        {
          "indexed": true,
          "internalType": "uint256",
          "name": "candidateId",
          "type": "uint256"
        }
      ],
      "name": "Voted",
      "type": "event"
    },
    {
      "inputs": [
        {
          "internalType": "string",
          "name": "_name",
          "type": "string"
        }
      ],
      "name": "addCandidate",
      "outputs": [],
      "stateMutability": "nonpayable",
      "type": "function"
    },
    {
      "inputs": [
        {
          "internalType": "uint256",
          "name": "",
          "type": "uint256"
        }
      ],
      "name": "candidates",
      "outputs": [
        {
          "internalType": "uint256",
          "name": "id",
          "type": "uint256"
        },
        {
          "internalType": "string",
          "name": "name",
          "type": "string"
        },
        {
          "internalType": "uint256",
          "name": "voteCount",
          "type": "uint256"
        }
      ],
      "stateMutability": "view",
      "type": "function"
    },
    {
      "inputs": [],
      "name": "candidatesCount",
      "outputs": [
        {
          "internalType": "uint256",
          "name": "",
          "type": "uint256"
        }
      ],
      "stateMutability": "view",
      "type": "function"
    },
    {
      "inputs": [],
      "name": "getAllCandidates",
      "outputs": [
        {
          "components": [
            {
              "internalType": "uint256",
              "name": "id",
              "type": "uint256"
            },
            {
              "internalType": "string",
              "name": "name",
              "type": "string"
            },
            {
              "internalType": "uint256",
              "name": "voteCount",
              "type": "uint256"
            }
          ],
          "internalType": "struct Voting.Candidate[]",
          "name": "",
          "type": "tuple[]"
        }
      ],
      "stateMutability": "view",
      "type": "function"
    },
    {
      "inputs": [],
      "name": "owner",
      "outputs": [
        {
          "internalType": "address",
          "name": "",
          "type": "address"
        }
      ],
      "stateMutability": "view",
      "type": "function"
    },
    {
      "inputs": [
        {
          "internalType": "uint256",
          "name": "_candidateId",
          "type": "uint256"
        }
      ],
      "name": "vote",
      "outputs": [],
      "stateMutability": "nonpayable",
      "type": "function"
    },
    {
      "inputs": [
        {
          "internalType": "address",
          "name": "",
          "type": "address"
        }
      ],
      "name": "voters",
      "outputs": [
        {
          "internalType": "bool",
          "name": "",
          "type": "bool"
        }
      ],
      "stateMutability": "view",
      "type": "function"
    }
  ],
  "bytecode": "0x608060405234801561001057600080fd5b50336000806101000a81548173ffffffffffffffffffffffffffffffffffffffff021916908373ffffffffffffffffffffffffffffffffffffffff1602179055506111ca806100606000396000f3fe608060405234801561001057600080fd5b506004361061007d5760003560e01c80633477ee2e1161005b5780633477ee2e146100da578063462e91ec1461010c5780638da5cb5b14610128578063a3ec138d146101465761007d565b80630121b93f146100825780632d35a8a21461009e5780632e6997fe146100bc575b600080fd5b61009c60048036038101906100979190610735565b610176565b005b6100a661031f565b6040516100b39190610771565b60405180910390f35b6100c4610325565b6040516100d1919061093d565b60405180910390f35b6100f460048036038101906100ef9190610735565b610491565b604051610103939291906109a9565b60405180910390f35b61012660048036038101906101219190610b1c565b610543565b005b610130610686565b60405161013d9190610ba6565b60405180910390f35b610160600480360381019061015b9190610bed565b6106aa565b60405161016d9190610c35565b60405180910390f35b600260003373ffffffffffffffffffffffffffffffffffffffff1673ffffffffffffffffffffffffffffffffffffffff16815260200190815260200160002060009054906101000a900460ff1615610203576040517f08c379a00000000000000000000000000000000000000000000000000000000081526004016101fa90610c9c565b60405180910390fd5b60008111801561021557506003548111155b610254576040517f08c379a000000000000000000000000000000000000000000000000000000000815260040161024b90610d08565b60405180910390fd5b6001600260003373ffffffffffffffffffffffffffffffffffffffff1673ffffffffffffffffffffffffffffffffffffffff16815260200190815260200160002060006101000a81548160ff0219169083151502179055506001600082815260200190815260200160002060020160008154809291906102d390610d57565b9190505550803373ffffffffffffffffffffffffffffffffffffffff167f4d99b957a2bc29a30ebd96a7be8e68fe50a3c701db28a91436490b7d53870ca460405160405180910390a350565b60035481565b6060600060035467ffffffffffffffff811115610345576103446109f1565b5b60405190808252806020026020018201604052801561037e57816020015b61036b6106ca565b8152602001906001900390816103635790505b50905060005b600354811015610489576001600060018361039f9190610d9f565b8152602001908152602001600020604051806060016040529081600082015481526020016001820180546103d290610e02565b80601f01602080910402602001604051908101604052809291908181526020018280546103fe90610e02565b801561044b5780601f106104205761010080835404028352916020019161044b565b820191906000526020600020905b81548152906001019060200180831161042e57829003601f168201915b5050505050815260200160028201548152505082828151811061047157610470610e33565b5b60200260200101819052508080600101915050610384565b508091505090565b60016020528060005260406000206000915090508060000154908060010180546104ba90610e02565b80601f01602080910402602001604051908101604052809291908181526020018280546104e690610e02565b80156105335780601f1061050857610100808354040283529160200191610533565b820191906000526020600020905b81548152906001019060200180831161051657829003601f168201915b5050505050908060020154905083565b60008054906101000a900473ffffffffffffffffffffffffffffffffffffffff1673ffffffffffffffffffffffffffffffffffffffff163373ffffffffffffffffffffffffffffffffffffffff16146105d1576040517f08c379a00000000000000000000000000000000000000000000000000000000081526004016105c890610ed4565b60405180910390fd5b600360008154809291906105e490610d57565b919050555060405180606001604052806003548152602001828152602001600081525060016000600354815260200190815260200160002060008201518160000155602082015181600101908161063b91906110a0565b50604082015181600201559050506003547fe83b2a43e7e82d975c8a0a6d2f045153c869e111136a34d1889ab7b598e396a38260405161067b9190611172565b60405180910390a250565b60008054906101000a900473ffffffffffffffffffffffffffffffffffffffff1681565b60026020528060005260406000206000915054906101000a900460ff1681565b60405180606001604052806000815260200160608152602001600081525090565b6000604051905090565b600080fd5b600080fd5b6000819050919050565b610712816106ff565b811461071d57600080fd5b50565b60008135905061072f81610709565b92915050565b60006020828403121561074b5761074a6106f5565b5b600061075984828501610720565b91505092915050565b61076b816106ff565b82525050565b60006020820190506107866000830184610762565b92915050565b600081519050919050565b600082825260208201905092915050565b6000819050602082019050919050565b6107c1816106ff565b82525050565b600081519050919050565b600082825260208201905092915050565b60005b838110156108015780820151818401526020810190506107e6565b60008484015250505050565b6000601f19601f8301169050919050565b6000610829826107c7565b61083381856107d2565b93506108438185602086016107e3565b61084c8161080d565b840191505092915050565b600060608301600083015161086f60008601826107b8565b5060208301518482036020860152610887828261081e565b915050604083015161089c60408601826107b8565b508091505092915050565b60006108b38383610857565b905092915050565b6000602082019050919050565b60006108d38261078c565b6108dd8185610797565b9350836020820285016108ef856107a8565b8060005b8581101561092b578484038952815161090c85826108a7565b9450610917836108bb565b925060208a019950506001810190506108f3565b50829750879550505050505092915050565b6000602082019050818103600083015261095781846108c8565b905092915050565b600082825260208201905092915050565b600061097b826107c7565b610985818561095f565b93506109958185602086016107e3565b61099e8161080d565b840191505092915050565b60006060820190506109be6000830186610762565b81810360208301526109d08185610970565b90506109df6040830184610762565b949350505050565b600080fd5b600080fd5b7f4e487b7100000000000000000000000000000000000000000000000000000000600052604160045260246000fd5b610a298261080d565b810181811067ffffffffffffffff82111715610a4857610a476109f1565b5b80604052505050565b6000610a5b6106eb565b9050610a678282610a20565b919050565b600067ffffffffffffffff821115610a8757610a866109f1565b5b610a908261080d565b9050602081019050919050565b82818337600083830152505050565b6000610abf610aba84610a6c565b610a51565b905082815260208101848484011115610adb57610ada6109ec565b5b610ae6848285610a9d565b509392505050565b600082601f830112610b0357610b026109e7565b5b8135610b13848260208601610aac565b91505092915050565b600060208284031215610b3257610b316106f5565b5b600082013567ffffffffffffffff811115610b5057610b4f6106fa565b5b610b5c84828501610aee565b91505092915050565b600073ffffffffffffffffffffffffffffffffffffffff82169050919050565b6000610b9082610b65565b9050919050565b610ba081610b85565b82525050565b6000602082019050610bbb6000830184610b97565b92915050565b610bca81610b85565b8114610bd557600080fd5b50565b600081359050610be781610bc1565b92915050565b600060208284031215610c0357610c026106f5565b5b6000610c1184828501610bd8565b91505092915050565b60008115159050919050565b610c2f81610c1a565b82525050565b6000602082019050610c4a6000830184610c26565b92915050565b7f596f75206861766520616c726561647920766f7465642e000000000000000000600082015250565b6000610c8660178361095f565b9150610c9182610c50565b602082019050919050565b60006020820190508181036000830152610cb581610c79565b9050919050565b7f496e76616c69642063616e6469646174652049442e0000000000000000000000600082015250565b6000610cf260158361095f565b9150610cfd82610cbc565b602082019050919050565b60006020820190508181036000830152610d2181610ce5565b9050919050565b7f4e487b7100000000000000000000000000000000000000000000000000000000600052601160045260246000fd5b6000610d62826106ff565b91507fffffffffffffffffffffffffffffffffffffffffffffffffffffffffffffffff8203610d9457610d93610d28565b5b600182019050919050565b6000610daa826106ff565b9150610db5836106ff565b9250828201905080821115610dcd57610dcc610d28565b5b92915050565b7f4e487b7100000000000000000000000000000000000000000000000000000000600052602260045260246000fd5b60006002820490506001821680610e1a57607f821691505b602082108103610e2d57610e2c610dd3565b5b50919050565b7f4e487b7100000000000000000000000000000000000000000000000000000000600052603260045260246000fd5b7f4f6e6c79206f776e65722063616e2063616c6c20746869732066756e6374696f60008201527f6e2e000000000000000000000000000000000000000000000000000000000000602082015250565b6000610ebe60228361095f565b9150610ec982610e62565b604082019050919050565b60006020820190508181036000830152610eed81610eb1565b9050919050565b60008190508160005260206000209050919050565b60006020601f8301049050919050565b600082821b905092915050565b600060088302610f567fffffffffffffffffffffffffffffffffffffffffffffffffffffffffffffffff82610f19565b610f608683610f19565b95508019841693508086168417925050509392505050565b6000819050919050565b6000610f9d610f98610f93846106ff565b610f78565b6106ff565b9050919050565b6000819050919050565b610fb783610f82565b610fcb610fc382610fa4565b848454610f26565b825550505050565b600090565b610fe0610fd3565b610feb818484610fae565b505050565b5b8181101561100f57611004600082610fd8565b600181019050610ff1565b5050565b601f8211156110545761102581610ef4565b61102e84610f09565b8101602085101561103d578190505b61105161104985610f09565b830182610ff0565b50505b505050565b600082821c905092915050565b600061107760001984600802611059565b1980831691505092915050565b60006110908383611066565b9150826002028217905092915050565b6110a9826107c7565b67ffffffffffffffff8111156110c2576110c16109f1565b5b6110cc8254610e02565b6110d7828285611013565b600060209050601f83116001811461110a57600084156110f8578287015190505b6111028582611084565b86555061116a565b601f19841661111886610ef4565b60005b828110156111405784890151825560018201915060208501945060208101905061111b565b8683101561115d5784890151611159601f891682611066565b8355505b6001600288020188555050505b505050505050565b6000602082019050818103600083015261118c8184610970565b90509291505056fea26469706673582212209c2af30fbfba73c4205f55a83f9644756cf7b33a2b7e14fc61c1e40b2743277964736f6c63430008180033",
  "linkReferences": {},
  "deployedLinkReferences": {}
}